{
  "address": "0x1e6944041a1a15F7Db73e1a8e981765Ab52ac50C",
  "abi": [
    {
      "inputs": [
        {
          "internalType": "address",
          "name": "_webauthn",
          "type": "address"
        }
      ],
      "stateMutability": "nonpayable",
      "type": "constructor"
    },
    {
      "inputs": [
        {
          "internalType": "string",
          "name": "_name",
          "type": "string"
        },
        {
          "internalType": "uint256[2]",
          "name": "_walletPubKey",
          "type": "uint256[2]"
        }
      ],
      "name": "deploy",
      "outputs": [],
      "stateMutability": "payable",
      "type": "function"
    },
    {
      "inputs": [
        {
          "internalType": "address",
          "name": "",
          "type": "address"
        }
      ],
      "name": "userWallets",
      "outputs": [
        {
          "internalType": "address",
          "name": "",
          "type": "address"
        }
      ],
      "stateMutability": "view",
      "type": "function"
    },
    {
      "inputs": [],
      "name": "webauthn",
      "outputs": [
        {
          "internalType": "address",
          "name": "",
          "type": "address"
        }
      ],
      "stateMutability": "view",
      "type": "function"
    },
    {
      "stateMutability": "payable",
      "type": "receive"
    }
  ],
  "transactionHash": "0x6952962795eceaf007b908ebbb9901d2da01619ee8c81c3c60f52fa9b9878e11",
  "args": [
    "0xf360FA36ac1b0EE6a28D1a0cf0F1C73f5F2AD941"
  ],
  "numDeployments": 1,
  "solcInputHash": "5c8271d7cb961c98912c285aba14ca85",
  "bytecode": "0x608060405234801561001057600080fd5b506040516113bd3803806113bd83398101604081905261002f91610054565b600180546001600160a01b0319166001600160a01b0392909216919091179055610084565b60006020828403121561006657600080fd5b81516001600160a01b038116811461007d57600080fd5b9392505050565b61132a806100936000396000f3fe6080604052600436106100385760003560e01c806363e6ffdd1461004457806366a55eeb14610096578063f072b0b3146100b657600080fd5b3661003f57005b600080fd5b34801561005057600080fd5b5061007a61005f3660046102ea565b6000602081905290815260409020546001600160a01b031681565b6040516001600160a01b03909116815260200160405180910390f35b3480156100a257600080fd5b5060015461007a906001600160a01b031681565b6100c96100c4366004610329565b6100cb565b005b60008383336040516020016100e29392919061042f565b60408051601f19818403018152908290526100ff9160200161048b565b604051602081830303815290604052805190602001209050600061019834836040518060200161012e906102dc565b601f1982820381018352601f909101166040819052600154610166918b918b9133918c916001600160a01b0390911690602001610497565b60408051601f198184030181529082905261018492916020016104f9565b6040516020818303038152906040526101cc565b33600090815260208190526040902080546001600160a01b0319166001600160a01b03929092169190911790555050505050565b6000834710156102235760405162461bcd60e51b815260206004820152601d60248201527f437265617465323a20696e73756666696369656e742062616c616e636500000060448201526064015b60405180910390fd5b81516000036102745760405162461bcd60e51b815260206004820181905260248201527f437265617465323a2062797465636f6465206c656e677468206973207a65726f604482015260640161021a565b8282516020840186f590506001600160a01b0381166102d55760405162461bcd60e51b815260206004820152601960248201527f437265617465323a204661696c6564206f6e206465706c6f7900000000000000604482015260640161021a565b9392505050565b610dde806200051783390190565b6000602082840312156102fc57600080fd5b81356001600160a01b03811681146102d557600080fd5b634e487b7160e01b600052604160045260246000fd5b60008060006060848603121561033e57600080fd5b833567ffffffffffffffff8082111561035657600080fd5b818601915086601f83011261036a57600080fd5b81358181111561037957600080fd5b6020888183860101111561038c57600080fd5b808401965081955088603f8901126103a357600080fd5b604051935060408401915083821083831117156103c2576103c2610313565b81604052839250606088019150888211156103dc57600080fd5b8088015b828110156103f757803584529281019281016103e0565b50505050809150509250925092565b81835281816020850137506000828201602090810191909152601f909101601f19169091010190565b604081526000610443604083018587610406565b905060018060a01b0383166020830152949350505050565b6000815160005b8181101561047c5760208185018101518683015201610462565b50600093019283525090919050565b60006102d5828461045b565b60a0815260006104ab60a083018789610406565b9050602060018060a01b0380871682850152604084018660005b60028110156104e2578151835291840191908401906001016104c5565b505050808516608085015250509695505050505050565b600061050e610508838661045b565b8461045b565b94935050505056fe608060405260405162000dde38038062000dde8339810160408190526200002691620001bf565b600080546001600160a01b0319166001600160a01b03851617905560016200004f85826200033d565b506200005e6002838162000089565b50600480546001600160a01b0319166001600160a01b03929092169190911790555062000409915050565b8260028101928215620000ba579160200282015b82811115620000ba5782518255916020019190600101906200009d565b50620000c8929150620000cc565b5090565b5b80821115620000c85760008155600101620000cd565b634e487b7160e01b600052604160045260246000fd5b604051601f8201601f191681016001600160401b0381118282101715620001245762000124620000e3565b604052919050565b80516001600160a01b03811681146200014457600080fd5b919050565b600082601f8301126200015b57600080fd5b604080519081016001600160401b0381118282101715620001805762000180620000e3565b80604052508060408401858111156200019857600080fd5b845b81811015620001b45780518352602092830192016200019a565b509195945050505050565b60008060008060a08587031215620001d657600080fd5b84516001600160401b0380821115620001ee57600080fd5b818701915087601f8301126200020357600080fd5b815181811115620002185762000218620000e3565b6020915062000230601f8201601f19168301620000f9565b81815289838386010111156200024557600080fd5b60005b828110156200026557848101840151828201850152830162000248565b5060008383830101528097505050620002808188016200012c565b9450505062000293866040870162000149565b9150620002a3608086016200012c565b905092959194509250565b600181811c90821680620002c357607f821691505b602082108103620002e457634e487b7160e01b600052602260045260246000fd5b50919050565b601f8211156200033857600081815260208120601f850160051c81016020861015620003135750805b601f850160051c820191505b8181101562000334578281556001016200031f565b5050505b505050565b81516001600160401b03811115620003595762000359620000e3565b62000371816200036a8454620002ae565b84620002ea565b602080601f831160018114620003a95760008415620003905750858301515b600019600386901b1c1916600185901b17855562000334565b600085815260208120601f198616915b82811015620003da57888601518255948401946001909101908401620003b9565b5085821015620003f95787850151600019600388901b60f8161c191681555b5050505050600190811b01905550565b6109c580620004196000396000f3fe60806040526004361061007f5760003560e01c8063893d20e81161004e578063893d20e81461012f5780638da5cb5b1461014d5780639bd9bbc61461016d578063dc2a4c591461018f57600080fd5b806306fdde031461008b5780630ed6465d146100b657806312065fe0146100e457806366a55eeb146100f757600080fd5b3661008657005b600080fd5b34801561009757600080fd5b506100a06101bf565b6040516100ad919061056f565b60405180910390f35b3480156100c257600080fd5b506100d66100d1366004610589565b61024d565b6040519081526020016100ad565b3480156100f057600080fd5b50476100d6565b34801561010357600080fd5b50600454610117906001600160a01b031681565b6040516001600160a01b0390911681526020016100ad565b34801561013b57600080fd5b506000546001600160a01b0316610117565b34801561015957600080fd5b50600054610117906001600160a01b031681565b34801561017957600080fd5b5061018d610188366004610667565b610264565b005b34801561019b57600080fd5b506101af6101aa3660046106cc565b6103ff565b60405190151581526020016100ad565b600180546101cc90610709565b80601f01602080910402602001604051908101604052809291908181526020018280546101f890610709565b80156102455780601f1061021a57610100808354040283529160200191610245565b820191906000526020600020905b81548152906001019060200180831161022857829003601f168201915b505050505081565b6002816002811061025d57600080fd5b0154905081565b6000546001600160a01b031633146102b95760405162461bcd60e51b815260206004820152601360248201527231b0b63632b91034b9903737ba1037bbb732b960691b60448201526064015b60405180910390fd5b6001600160a01b03831661030f5760405162461bcd60e51b815260206004820152601960248201527f696e76616c696420726563697069656e7420616464726573730000000000000060448201526064016102b0565b600061031a826103ff565b90508061035d5760405162461bcd60e51b8152602060048201526011602482015270496e76616c6964207369676e617475726560781b60448201526064016102b0565b60405184906000906001600160a01b0383169086908381818185875af1925050503d80600081146103aa576040519150601f19603f3d011682016040523d82523d6000602084013e6103af565b606091505b50509050806103f75760405162461bcd60e51b81526020600482015260146024820152732330b4b632b2103a379039b2b7321022ba3432b960611b60448201526064016102b0565b505050505050565b60048054604051637dcd9c5f60e11b81526000928392839283928392839283926001600160a01b039092169163fb9b38be9161043d918c910161056f565b600060405180830381865afa15801561045a573d6000803e3d6000fd5b505050506040513d6000823e601f3d908101601f1916820160405261048291908101906107f8565b60048054604051637cde65e560e01b8152979d50959b50939950919750955093506000926001600160a01b0390921691637cde65e5916104d1918b918b918b918b918b918b91600291016108bc565b602060405180830381865afa1580156104ee573d6000803e3d6000fd5b505050506040513d601f19601f82011682018060405250810190610512919061096d565b9998505050505050505050565b60005b8381101561053a578181015183820152602001610522565b50506000910152565b6000815180845261055b81602086016020860161051f565b601f01601f19169290920160200192915050565b6020815260006105826020830184610543565b9392505050565b60006020828403121561059b57600080fd5b5035919050565b634e487b7160e01b600052604160045260246000fd5b604051601f8201601f1916810167ffffffffffffffff811182821017156105e1576105e16105a2565b604052919050565b600067ffffffffffffffff821115610603576106036105a2565b50601f01601f191660200190565b600082601f83011261062257600080fd5b8135610635610630826105e9565b6105b8565b81815284602083860101111561064a57600080fd5b816020850160208301376000918101602001919091529392505050565b60008060006060848603121561067c57600080fd5b83356001600160a01b038116811461069357600080fd5b925060208401359150604084013567ffffffffffffffff8111156106b657600080fd5b6106c286828701610611565b9150509250925092565b6000602082840312156106de57600080fd5b813567ffffffffffffffff8111156106f557600080fd5b61070184828501610611565b949350505050565b600181811c9082168061071d57607f821691505b60208210810361073d57634e487b7160e01b600052602260045260246000fd5b50919050565b600082601f83011261075457600080fd5b8151610762610630826105e9565b81815284602083860101111561077757600080fd5b61070182602083016020870161051f565b600082601f83011261079957600080fd5b6040516040810181811067ffffffffffffffff821117156107bc576107bc6105a2565b80604052508060408401858111156107d357600080fd5b845b818110156107ed5780518352602092830192016107d5565b509195945050505050565b60008060008060008060e0878903121561081157600080fd5b865167ffffffffffffffff8082111561082957600080fd5b6108358a838b01610743565b60208a015190985091506001600160f81b03198216821461085557600080fd5b60408901519196508082111561086a57600080fd5b6108768a838b01610743565b9550606089015191508082111561088c57600080fd5b5061089989828a01610743565b935050608087015191506108b08860a08901610788565b90509295509295509295565b60006101208083526108d08184018b610543565b9050602060ff60f81b8a168185015283820360408501526108f1828a610543565b915083820360608501526109058289610543565b925086608085015260a0840191508560005b600281101561093457815184529282019290820190600101610917565b505060e0840191508460005b600281101561095d57815484529282019260019182019101610940565b5050505098975050505050505050565b60006020828403121561097f57600080fd5b8151801515811461058257600080fdfea2646970667358221220183c684d5c3742b082324f92cbe2c1dbaf37b4929c6ac7795f666e1c034fac2564736f6c63430008110033a2646970667358221220aecc7a953ec99226b15ab524a3af42bb51d145bf307974cef6df901e289e1a8064736f6c63430008110033",
  "devdoc": {
    "kind": "dev",
    "methods": {},
    "version": 1
  },
  "userdoc": {
    "kind": "user",
    "methods": {},
    "version": 1
  },
  "storageLayout": {
    "storage": [
      {
        "astId": 271,
        "contract": "contracts/WalletFactory.sol:WalletFactory",
        "label": "userWallets",
        "offset": 0,
        "slot": "0",
        "type": "t_mapping(t_address,t_address)"
      },
      {
        "astId": 273,
        "contract": "contracts/WalletFactory.sol:WalletFactory",
        "label": "webauthn",
        "offset": 0,
        "slot": "1",
        "type": "t_address"
      }
    ],
    "types": {
      "t_address": {
        "encoding": "inplace",
        "label": "address",
        "numberOfBytes": "20"
      },
      "t_mapping(t_address,t_address)": {
        "encoding": "mapping",
        "key": "t_address",
        "label": "mapping(address => address)",
        "numberOfBytes": "32",
        "value": "t_address"
      }
    }
  }
}